{
  "_format": "hh-sol-artifact-1",
  "contractName": "ModernArtTheory",
  "sourceName": "contracts/ModernArtTheory.sol",
  "abi": [
    {
      "inputs": [
        {
          "internalType": "string",
          "name": "uri",
          "type": "string"
        },
        {
          "internalType": "bytes32",
          "name": "merkleroot",
          "type": "bytes32"
        },
        {
          "internalType": "address",
          "name": "_proxyRegistryAddress",
          "type": "address"
        }
      ],
      "stateMutability": "nonpayable",
      "type": "constructor"
    },
    {
      "anonymous": false,
      "inputs": [
        {
          "indexed": true,
          "internalType": "address",
          "name": "owner",
          "type": "address"
        },
        {
          "indexed": true,
          "internalType": "address",
          "name": "approved",
          "type": "address"
        },
        {
          "indexed": true,
          "internalType": "uint256",
          "name": "tokenId",
          "type": "uint256"
        }
      ],
      "name": "Approval",
      "type": "event"
    },
    {
      "anonymous": false,
      "inputs": [
        {
          "indexed": true,
          "internalType": "address",
          "name": "owner",
          "type": "address"
        },
        {
          "indexed": true,
          "internalType": "address",
          "name": "operator",
          "type": "address"
        },
        {
          "indexed": false,
          "internalType": "bool",
          "name": "approved",
          "type": "bool"
        }
      ],
      "name": "ApprovalForAll",
      "type": "event"
    },
    {
      "anonymous": false,
      "inputs": [
        {
          "indexed": true,
          "internalType": "contract IERC20",
          "name": "token",
          "type": "address"
        },
        {
          "indexed": false,
          "internalType": "address",
          "name": "to",
          "type": "address"
        },
        {
          "indexed": false,
          "internalType": "uint256",
          "name": "amount",
          "type": "uint256"
        }
      ],
      "name": "ERC20PaymentReleased",
      "type": "event"
    },
    {
      "anonymous": false,
      "inputs": [
        {
          "indexed": true,
          "internalType": "address",
          "name": "previousOwner",
          "type": "address"
        },
        {
          "indexed": true,
          "internalType": "address",
          "name": "newOwner",
          "type": "address"
        }
      ],
      "name": "OwnershipTransferred",
      "type": "event"
    },
    {
      "anonymous": false,
      "inputs": [
        {
          "indexed": false,
          "internalType": "address",
          "name": "account",
          "type": "address"
        },
        {
          "indexed": false,
          "internalType": "uint256",
          "name": "shares",
          "type": "uint256"
        }
      ],
      "name": "PayeeAdded",
      "type": "event"
    },
    {
      "anonymous": false,
      "inputs": [
        {
          "indexed": false,
          "internalType": "address",
          "name": "from",
          "type": "address"
        },
        {
          "indexed": false,
          "internalType": "uint256",
          "name": "amount",
          "type": "uint256"
        }
      ],
      "name": "PaymentReceived",
      "type": "event"
    },
    {
      "anonymous": false,
      "inputs": [
        {
          "indexed": false,
          "internalType": "address",
          "name": "to",
          "type": "address"
        },
        {
          "indexed": false,
          "internalType": "uint256",
          "name": "amount",
          "type": "uint256"
        }
      ],
      "name": "PaymentReleased",
      "type": "event"
    },
    {
      "anonymous": false,
      "inputs": [
        {
          "indexed": true,
          "internalType": "address",
          "name": "from",
          "type": "address"
        },
        {
          "indexed": true,
          "internalType": "address",
          "name": "to",
          "type": "address"
        },
        {
          "indexed": true,
          "internalType": "uint256",
          "name": "tokenId",
          "type": "uint256"
        }
      ],
      "name": "Transfer",
      "type": "event"
    },
    {
      "inputs": [
        {
          "internalType": "address",
          "name": "",
          "type": "address"
        }
      ],
      "name": "_presaleClaimed",
      "outputs": [
        {
          "internalType": "uint256",
          "name": "",
          "type": "uint256"
        }
      ],
      "stateMutability": "view",
      "type": "function"
    },
    {
      "inputs": [
        {
          "internalType": "address",
          "name": "to",
          "type": "address"
        },
        {
          "internalType": "uint256",
          "name": "tokenId",
          "type": "uint256"
        }
      ],
      "name": "approve",
      "outputs": [],
      "stateMutability": "nonpayable",
      "type": "function"
    },
    {
      "inputs": [
        {
          "internalType": "address",
          "name": "owner",
          "type": "address"
        }
      ],
      "name": "balanceOf",
      "outputs": [
        {
          "internalType": "uint256",
          "name": "",
          "type": "uint256"
        }
      ],
      "stateMutability": "view",
      "type": "function"
    },
    {
      "inputs": [],
      "name": "baseExtension",
      "outputs": [
        {
          "internalType": "string",
          "name": "",
          "type": "string"
        }
      ],
      "stateMutability": "view",
      "type": "function"
    },
    {
      "inputs": [],
      "name": "baseURI",
      "outputs": [
        {
          "internalType": "string",
          "name": "",
          "type": "string"
        }
      ],
      "stateMutability": "view",
      "type": "function"
    },
    {
      "inputs": [
        {
          "internalType": "uint256",
          "name": "tokenId",
          "type": "uint256"
        }
      ],
      "name": "getApproved",
      "outputs": [
        {
          "internalType": "address",
          "name": "",
          "type": "address"
        }
      ],
      "stateMutability": "view",
      "type": "function"
    },
    {
      "inputs": [
        {
          "internalType": "address",
          "name": "owner",
          "type": "address"
        },
        {
          "internalType": "address",
          "name": "operator",
          "type": "address"
        }
      ],
      "name": "isApprovedForAll",
      "outputs": [
        {
          "internalType": "bool",
          "name": "",
          "type": "bool"
        }
      ],
      "stateMutability": "view",
      "type": "function"
    },
    {
      "inputs": [],
      "name": "maxSupply",
      "outputs": [
        {
          "internalType": "uint256",
          "name": "",
          "type": "uint256"
        }
      ],
      "stateMutability": "view",
      "type": "function"
    },
    {
      "inputs": [],
      "name": "name",
      "outputs": [
        {
          "internalType": "string",
          "name": "",
          "type": "string"
        }
      ],
      "stateMutability": "view",
      "type": "function"
    },
    {
      "inputs": [],
      "name": "notRevealedUri",
      "outputs": [
        {
          "internalType": "string",
          "name": "",
          "type": "string"
        }
      ],
      "stateMutability": "view",
      "type": "function"
    },
    {
      "inputs": [],
      "name": "owner",
      "outputs": [
        {
          "internalType": "address",
          "name": "",
          "type": "address"
        }
      ],
      "stateMutability": "view",
      "type": "function"
    },
    {
      "inputs": [
        {
          "internalType": "uint256",
          "name": "tokenId",
          "type": "uint256"
        }
      ],
      "name": "ownerOf",
      "outputs": [
        {
          "internalType": "address",
          "name": "",
          "type": "address"
        }
      ],
      "stateMutability": "view",
      "type": "function"
    },
    {
      "inputs": [],
      "name": "paused",
      "outputs": [
        {
          "internalType": "bool",
          "name": "",
          "type": "bool"
        }
      ],
      "stateMutability": "view",
      "type": "function"
    },
    {
      "inputs": [
        {
          "internalType": "uint256",
          "name": "index",
          "type": "uint256"
        }
      ],
      "name": "payee",
      "outputs": [
        {
          "internalType": "address",
          "name": "",
          "type": "address"
        }
      ],
      "stateMutability": "view",
      "type": "function"
    },
    {
      "inputs": [],
      "name": "presaleM",
      "outputs": [
        {
          "internalType": "bool",
          "name": "",
          "type": "bool"
        }
      ],
      "stateMutability": "view",
      "type": "function"
    },
    {
      "inputs": [
        {
          "internalType": "address",
          "name": "account",
          "type": "address"
        },
        {
          "internalType": "uint256",
          "name": "_amount",
          "type": "uint256"
        },
        {
          "internalType": "bytes32[]",
          "name": "_proof",
          "type": "bytes32[]"
        }
      ],
      "name": "presaleMint",
      "outputs": [],
      "stateMutability": "payable",
      "type": "function"
    },
    {
      "inputs": [],
      "name": "publicM",
      "outputs": [
        {
          "internalType": "bool",
          "name": "",
          "type": "bool"
        }
      ],
      "stateMutability": "view",
      "type": "function"
    },
    {
      "inputs": [
        {
          "internalType": "uint256",
          "name": "_amount",
          "type": "uint256"
        }
      ],
      "name": "publicSaleMint",
      "outputs": [],
      "stateMutability": "payable",
      "type": "function"
    },
    {
      "inputs": [
        {
          "internalType": "address",
          "name": "account",
          "type": "address"
        }
      ],
      "name": "releasable",
      "outputs": [
        {
          "internalType": "uint256",
          "name": "",
          "type": "uint256"
        }
      ],
      "stateMutability": "view",
      "type": "function"
    },
    {
      "inputs": [
        {
          "internalType": "contract IERC20",
          "name": "token",
          "type": "address"
        },
        {
          "internalType": "address",
          "name": "account",
          "type": "address"
        }
      ],
      "name": "releasable",
      "outputs": [
        {
          "internalType": "uint256",
          "name": "",
          "type": "uint256"
        }
      ],
      "stateMutability": "view",
      "type": "function"
    },
    {
      "inputs": [
        {
          "internalType": "address payable",
          "name": "account",
          "type": "address"
        }
      ],
      "name": "release",
      "outputs": [],
      "stateMutability": "nonpayable",
      "type": "function"
    },
    {
      "inputs": [
        {
          "internalType": "contract IERC20",
          "name": "token",
          "type": "address"
        },
        {
          "internalType": "address",
          "name": "account",
          "type": "address"
        }
      ],
      "name": "release",
      "outputs": [],
      "stateMutability": "nonpayable",
      "type": "function"
    },
    {
      "inputs": [
        {
          "internalType": "contract IERC20",
          "name": "token",
          "type": "address"
        },
        {
          "internalType": "address",
          "name": "account",
          "type": "address"
        }
      ],
      "name": "released",
      "outputs": [
        {
          "internalType": "uint256",
          "name": "",
          "type": "uint256"
        }
      ],
      "stateMutability": "view",
      "type": "function"
    },
    {
      "inputs": [
        {
          "internalType": "address",
          "name": "account",
          "type": "address"
        }
      ],
      "name": "released",
      "outputs": [
        {
          "internalType": "uint256",
          "name": "",
          "type": "uint256"
        }
      ],
      "stateMutability": "view",
      "type": "function"
    },
    {
      "inputs": [],
      "name": "renounceOwnership",
      "outputs": [],
      "stateMutability": "nonpayable",
      "type": "function"
    },
    {
      "inputs": [],
      "name": "reveal",
      "outputs": [],
      "stateMutability": "nonpayable",
      "type": "function"
    },
    {
      "inputs": [],
      "name": "revealed",
      "outputs": [
        {
          "internalType": "bool",
          "name": "",
          "type": "bool"
        }
      ],
      "stateMutability": "view",
      "type": "function"
    },
    {
      "inputs": [],
      "name": "root",
      "outputs": [
        {
          "internalType": "bytes32",
          "name": "",
          "type": "bytes32"
        }
      ],
      "stateMutability": "view",
      "type": "function"
    },
    {
      "inputs": [
        {
          "internalType": "address",
          "name": "from",
          "type": "address"
        },
        {
          "internalType": "address",
          "name": "to",
          "type": "address"
        },
        {
          "internalType": "uint256",
          "name": "tokenId",
          "type": "uint256"
        }
      ],
      "name": "safeTransferFrom",
      "outputs": [],
      "stateMutability": "nonpayable",
      "type": "function"
    },
    {
      "inputs": [
        {
          "internalType": "address",
          "name": "from",
          "type": "address"
        },
        {
          "internalType": "address",
          "name": "to",
          "type": "address"
        },
        {
          "internalType": "uint256",
          "name": "tokenId",
          "type": "uint256"
        },
        {
          "internalType": "bytes",
          "name": "data",
          "type": "bytes"
        }
      ],
      "name": "safeTransferFrom",
      "outputs": [],
      "stateMutability": "nonpayable",
      "type": "function"
    },
    {
      "inputs": [
        {
          "internalType": "address",
          "name": "operator",
          "type": "address"
        },
        {
          "internalType": "bool",
          "name": "approved",
          "type": "bool"
        }
      ],
      "name": "setApprovalForAll",
      "outputs": [],
      "stateMutability": "nonpayable",
      "type": "function"
    },
    {
      "inputs": [
        {
          "internalType": "string",
          "name": "_newBaseExtension",
          "type": "string"
        }
      ],
      "name": "setBaseExtension",
      "outputs": [],
      "stateMutability": "nonpayable",
      "type": "function"
    },
    {
      "inputs": [
        {
          "internalType": "string",
          "name": "_tokenBaseURI",
          "type": "string"
        }
      ],
      "name": "setBaseURI",
      "outputs": [],
      "stateMutability": "nonpayable",
      "type": "function"
    },
    {
      "inputs": [
        {
          "internalType": "bytes32",
          "name": "merkleroot",
          "type": "bytes32"
        }
      ],
      "name": "setMerkleRoot",
      "outputs": [],
      "stateMutability": "nonpayable",
      "type": "function"
    },
    {
      "inputs": [
        {
          "internalType": "string",
          "name": "_notRevealedURI",
          "type": "string"
        }
      ],
      "name": "setNotRevealedURI",
      "outputs": [],
      "stateMutability": "nonpayable",
      "type": "function"
    },
    {
      "inputs": [
        {
          "internalType": "address",
          "name": "account",
          "type": "address"
        }
      ],
      "name": "shares",
      "outputs": [
        {
          "internalType": "uint256",
          "name": "",
          "type": "uint256"
        }
      ],
      "stateMutability": "view",
      "type": "function"
    },
    {
      "inputs": [
        {
          "internalType": "bytes4",
          "name": "interfaceId",
          "type": "bytes4"
        }
      ],
      "name": "supportsInterface",
      "outputs": [
        {
          "internalType": "bool",
          "name": "",
          "type": "bool"
        }
      ],
      "stateMutability": "view",
      "type": "function"
    },
    {
      "inputs": [],
      "name": "symbol",
      "outputs": [
        {
          "internalType": "string",
          "name": "",
          "type": "string"
        }
      ],
      "stateMutability": "view",
      "type": "function"
    },
    {
      "inputs": [],
      "name": "togglePause",
      "outputs": [],
      "stateMutability": "nonpayable",
      "type": "function"
    },
    {
      "inputs": [],
      "name": "togglePresale",
      "outputs": [],
      "stateMutability": "nonpayable",
      "type": "function"
    },
    {
      "inputs": [],
      "name": "togglePublicSale",
      "outputs": [],
      "stateMutability": "nonpayable",
      "type": "function"
    },
    {
      "inputs": [
        {
          "internalType": "uint256",
          "name": "tokenId",
          "type": "uint256"
        }
      ],
      "name": "tokenURI",
      "outputs": [
        {
          "internalType": "string",
          "name": "",
          "type": "string"
        }
      ],
      "stateMutability": "view",
      "type": "function"
    },
    {
      "inputs": [
        {
          "internalType": "contract IERC20",
          "name": "token",
          "type": "address"
        }
      ],
      "name": "totalReleased",
      "outputs": [
        {
          "internalType": "uint256",
          "name": "",
          "type": "uint256"
        }
      ],
      "stateMutability": "view",
      "type": "function"
    },
    {
      "inputs": [],
      "name": "totalReleased",
      "outputs": [
        {
          "internalType": "uint256",
          "name": "",
          "type": "uint256"
        }
      ],
      "stateMutability": "view",
      "type": "function"
    },
    {
      "inputs": [],
      "name": "totalShares",
      "outputs": [
        {
          "internalType": "uint256",
          "name": "",
          "type": "uint256"
        }
      ],
      "stateMutability": "view",
      "type": "function"
    },
    {
      "inputs": [],
      "name": "totalSupply",
      "outputs": [
        {
          "internalType": "uint256",
          "name": "",
          "type": "uint256"
        }
      ],
      "stateMutability": "view",
      "type": "function"
    },
    {
      "inputs": [
        {
          "internalType": "address",
          "name": "from",
          "type": "address"
        },
        {
          "internalType": "address",
          "name": "to",
          "type": "address"
        },
        {
          "internalType": "uint256",
          "name": "tokenId",
          "type": "uint256"
        }
      ],
      "name": "transferFrom",
      "outputs": [],
      "stateMutability": "nonpayable",
      "type": "function"
    },
    {
      "inputs": [
        {
          "internalType": "address",
          "name": "newOwner",
          "type": "address"
        }
      ],
      "name": "transferOwnership",
      "outputs": [],
      "stateMutability": "nonpayable",
      "type": "function"
    },
    {
      "stateMutability": "payable",
      "type": "receive"
    }
  ],
  "bytecode": "0x60fa601155610100604052604360808181529062003a7160a03980516200002f9160139160209091019062000686565b5060408051808201909152600580825264173539b7b760d91b60209092019182526200005e9160149162000686565b506015805463ffffffff191690556005601655662386f26fc100006018556040805180820190915260328082526020820152620000a090601a90600262000715565b50604080518082019091527385a5d9347ff88d03ffcd01ad9393cf7d42acfa92815273bdf686f422215cfd1071227e07392f1ee00cbad36020820152620000ec90601b90600262000758565b50348015620000fa57600080fd5b5060405162003ab438038062003ab48339810160408190526200011d91620007fa565b601b8054806020026020016040519081016040528092919081815260200182805480156200017557602002820191906000526020600020905b81546001600160a01b0316815260019091019060200180831162000156575b5050505050601a805480602002602001604051908101604052809291908181526020018280548015620001c857602002820191906000526020600020905b815481526020019060010190808311620001b3575b5050604080518082018252600f81526e4d6f6465726e4172745468656f727960881b60208083019182528351808501909452600384526213505560ea1b9084015281519195509193506200022192506000919062000686565b5080516200023790600190602084019062000686565b505050620002546200024e620003c160201b60201c565b620003c5565b60016007558051825114620002cb5760405162461bcd60e51b815260206004820152603260248201527f5061796d656e7453706c69747465723a2070617965657320616e6420736861726044820152710cae640d8cadccee8d040dad2e6dac2e8c6d60731b60648201526084015b60405180910390fd5b60008251116200031e5760405162461bcd60e51b815260206004820152601a60248201527f5061796d656e7453706c69747465723a206e6f207061796565730000000000006044820152606401620002c2565b60005b82518110156200038a5762000375838281518110620003445762000344620008f5565b6020026020010151838381518110620003615762000361620008f5565b60200260200101516200041760201b60201c565b80620003818162000921565b91505062000321565b505050600f829055601080546001600160a01b0319166001600160a01b038316179055620003b88362000605565b50505062000997565b3390565b600680546001600160a01b038381166001600160a01b0319831681179093556040519116919082907f8be0079c531659141344cd1fd0a4f28419497f9722a3daafe3b4186f6b6457e090600090a35050565b6001600160a01b038216620004845760405162461bcd60e51b815260206004820152602c60248201527f5061796d656e7453706c69747465723a206163636f756e74206973207468652060448201526b7a65726f206164647265737360a01b6064820152608401620002c2565b60008111620004d65760405162461bcd60e51b815260206004820152601d60248201527f5061796d656e7453706c69747465723a207368617265732061726520300000006044820152606401620002c2565b6001600160a01b0382166000908152600a602052604090205415620005525760405162461bcd60e51b815260206004820152602b60248201527f5061796d656e7453706c69747465723a206163636f756e7420616c726561647960448201526a206861732073686172657360a81b6064820152608401620002c2565b600c8054600181019091557fdf6966c971051c3d54ec59162606531493a51404a002842f56009d7e5cf4a8c70180546001600160a01b0319166001600160a01b0384169081179091556000908152600a60205260409020819055600854620005bc9082906200093f565b600855604080516001600160a01b0384168152602081018390527f40c340f65e17194d14ddddb073d3c9f888e3cb52b5aae0c6c7706b4fbc905fac910160405180910390a15050565b6200060f62000628565b80516200062490601290602084019062000686565b5050565b6006546001600160a01b03163314620006845760405162461bcd60e51b815260206004820181905260248201527f4f776e61626c653a2063616c6c6572206973206e6f7420746865206f776e65726044820152606401620002c2565b565b82805462000694906200095a565b90600052602060002090601f016020900481019282620006b8576000855562000703565b82601f10620006d357805160ff191683800117855562000703565b8280016001018555821562000703579182015b8281111562000703578251825591602001919060010190620006e6565b5062000711929150620007b0565b5090565b82805482825590600052602060002090810192821562000703579160200282015b8281111562000703578251829060ff1690559160200191906001019062000736565b82805482825590600052602060002090810192821562000703579160200282015b828111156200070357825182546001600160a01b0319166001600160a01b0390911617825560209092019160019091019062000779565b5b80821115620007115760008155600101620007b1565b634e487b7160e01b600052604160045260246000fd5b80516001600160a01b0381168114620007f557600080fd5b919050565b6000806000606084860312156200081057600080fd5b83516001600160401b03808211156200082857600080fd5b818601915086601f8301126200083d57600080fd5b815181811115620008525762000852620007c7565b604051601f8201601f19908116603f011681019083821181831017156200087d576200087d620007c7565b816040528281526020935089848487010111156200089a57600080fd5b600091505b82821015620008be57848201840151818301850152908301906200089f565b82821115620008d05760008484830101525b8097505050508086015193505050620008ec60408501620007dd565b90509250925092565b634e487b7160e01b600052603260045260246000fd5b634e487b7160e01b600052601160045260246000fd5b60006000198214156200093857620009386200090b565b5060010190565b600082198211156200095557620009556200090b565b500190565b600181811c908216806200096f57607f821691505b602082108114156200099157634e487b7160e01b600052602260045260246000fd5b50919050565b6130ca80620009a76000396000f3fe6080604052600436106102975760003560e01c80638da5cb5b1161015a578063c6682862116100c1578063e222c7f91161007a578063e222c7f91461083f578063e33b7de314610854578063e985e9c514610869578063ebf0c71714610889578063f2c4ce1e1461089f578063f2fde38b146108bf57600080fd5b8063c668286214610768578063c87b56dd1461077d578063ce7c2ac21461079d578063d5abeb01146107d3578063d79779b2146107e9578063da3ef23f1461081f57600080fd5b8063a45063c011610113578063a45063c0146106ca578063a475b5dd146106eb578063b3ab66b014610700578063b88d4fde14610713578063c45ac05014610733578063c4ae31681461075357600080fd5b80638da5cb5b1461060e578063954dc3e31461062c57806395d89b411461063f5780639852595c14610654578063a22cb4651461068a578063a3f8eace146106aa57600080fd5b806342842e0e116101fe5780636c0360eb116101b75780636c0360eb1461055757806370a082311461056c578063715018a61461058c5780637cb64759146105a15780638b83209b146105c15780638cc4de19146105e157600080fd5b806342842e0e1461049e57806348b75044146104be57806351830227146104de57806355f804b3146104fd5780635c975abb1461051d5780636352211e1461053757600080fd5b806318160ddd1161025057806318160ddd146103cb57806319165587146103ee57806323b872dd1461040e578063343937431461042e5780633a98ef3914610443578063406072a91461045857600080fd5b806301ffc9a7146102e557806306fdde031461031a578063081812fc1461033c578063081c8c4414610374578063095ea7b3146103895780631798d58b146103ab57600080fd5b366102e0577f6ef95f06320e7a25a04a175ca677b7052bdd97131872c2192525a629f51be77033604080516001600160a01b0390921682523460208301520160405180910390a1005b600080fd5b3480156102f157600080fd5b50610305610300366004612800565b6108df565b60405190151581526020015b60405180910390f35b34801561032657600080fd5b5061032f610931565b6040516103119190612875565b34801561034857600080fd5b5061035c610357366004612888565b6109c3565b6040516001600160a01b039091168152602001610311565b34801561038057600080fd5b5061032f6109ea565b34801561039557600080fd5b506103a96103a43660046128b6565b610a78565b005b3480156103b757600080fd5b506015546103059062010000900460ff1681565b3480156103d757600080fd5b506103e0610b93565b604051908152602001610311565b3480156103fa57600080fd5b506103a96104093660046128e2565b610ba3565b34801561041a57600080fd5b506103a96104293660046128ff565b610c87565b34801561043a57600080fd5b506103a9610cb8565b34801561044f57600080fd5b506008546103e0565b34801561046457600080fd5b506103e0610473366004612940565b6001600160a01b039182166000908152600e6020908152604080832093909416825291909152205490565b3480156104aa57600080fd5b506103a96104b93660046128ff565b610cdf565b3480156104ca57600080fd5b506103a96104d9366004612940565b610cfa565b3480156104ea57600080fd5b5060155461030590610100900460ff1681565b34801561050957600080fd5b506103a9610518366004612a05565b610e08565b34801561052957600080fd5b506015546103059060ff1681565b34801561054357600080fd5b5061035c610552366004612888565b610e27565b34801561056357600080fd5b5061032f610e87565b34801561057857600080fd5b506103e06105873660046128e2565b610e94565b34801561059857600080fd5b506103a9610f1a565b3480156105ad57600080fd5b506103a96105bc366004612888565b610f2e565b3480156105cd57600080fd5b5061035c6105dc366004612888565b610f3b565b3480156105ed57600080fd5b506103e06105fc3660046128e2565b60176020526000908152604090205481565b34801561061a57600080fd5b506006546001600160a01b031661035c565b6103a961063a366004612a4e565b610f6b565b34801561064b57600080fd5b5061032f611256565b34801561066057600080fd5b506103e061066f3660046128e2565b6001600160a01b03166000908152600b602052604090205490565b34801561069657600080fd5b506103a96106a5366004612ae8565b611265565b3480156106b657600080fd5b506103e06106c53660046128e2565b611270565b3480156106d657600080fd5b50601554610305906301000000900460ff1681565b3480156106f757600080fd5b506103a96112b8565b6103a961070e366004612888565b6112d1565b34801561071f57600080fd5b506103a961072e366004612b16565b611492565b34801561073f57600080fd5b506103e061074e366004612940565b6114ca565b34801561075f57600080fd5b506103a96115a4565b34801561077457600080fd5b5061032f6115c0565b34801561078957600080fd5b5061032f610798366004612888565b6115cd565b3480156107a957600080fd5b506103e06107b83660046128e2565b6001600160a01b03166000908152600a602052604090205490565b3480156107df57600080fd5b506103e060115481565b3480156107f557600080fd5b506103e06108043660046128e2565b6001600160a01b03166000908152600d602052604090205490565b34801561082b57600080fd5b506103a961083a366004612a05565b61174b565b34801561084b57600080fd5b506103a9611766565b34801561086057600080fd5b506009546103e0565b34801561087557600080fd5b50610305610884366004612940565b61178f565b34801561089557600080fd5b506103e0600f5481565b3480156108ab57600080fd5b506103a96108ba366004612a05565b61185b565b3480156108cb57600080fd5b506103a96108da3660046128e2565b611876565b60006001600160e01b031982166380ac58cd60e01b148061091057506001600160e01b03198216635b5e139f60e01b145b8061092b57506301ffc9a760e01b6001600160e01b03198316145b92915050565b60606000805461094090612b96565b80601f016020809104026020016040519081016040528092919081815260200182805461096c90612b96565b80156109b95780601f1061098e576101008083540402835291602001916109b9565b820191906000526020600020905b81548152906001019060200180831161099c57829003601f168201915b5050505050905090565b60006109ce826118ef565b506000908152600460205260409020546001600160a01b031690565b601380546109f790612b96565b80601f0160208091040260200160405190810160405280929190818152602001828054610a2390612b96565b8015610a705780601f10610a4557610100808354040283529160200191610a70565b820191906000526020600020905b815481529060010190602001808311610a5357829003601f168201915b505050505081565b6000610a8382610e27565b9050806001600160a01b0316836001600160a01b03161415610af65760405162461bcd60e51b815260206004820152602160248201527f4552433732313a20617070726f76616c20746f2063757272656e74206f776e656044820152603960f91b60648201526084015b60405180910390fd5b336001600160a01b0382161480610b125750610b12813361178f565b610b845760405162461bcd60e51b815260206004820152603d60248201527f4552433732313a20617070726f76652063616c6c6572206973206e6f7420746f60448201527f6b656e206f776e6572206f7220617070726f76656420666f7220616c6c0000006064820152608401610aed565b610b8e838361194e565b505050565b6000610b9e60195490565b905090565b6001600160a01b0381166000908152600a6020526040902054610bd85760405162461bcd60e51b8152600401610aed90612bd1565b6000610be382611270565b905080610c025760405162461bcd60e51b8152600401610aed90612c17565b8060096000828254610c149190612c78565b90915550506001600160a01b0382166000908152600b60205260409020805482019055610c4182826119bc565b604080516001600160a01b0384168152602081018390527fdf20fd1e76bc69d672e4814fafb2c449bba3a5369d8359adf9e05e6fde87b056910160405180910390a15050565b610c913382611ad5565b610cad5760405162461bcd60e51b8152600401610aed90612c90565b610b8e838383611b33565b610cc0611ca4565b6015805462ff0000198116620100009182900460ff1615909102179055565b610b8e83838360405180602001604052806000815250611492565b6001600160a01b0381166000908152600a6020526040902054610d2f5760405162461bcd60e51b8152600401610aed90612bd1565b6000610d3b83836114ca565b905080610d5a5760405162461bcd60e51b8152600401610aed90612c17565b6001600160a01b0383166000908152600d602052604081208054839290610d82908490612c78565b90915550506001600160a01b038084166000908152600e60209081526040808320938616835292905220805482019055610dbd838383611cfe565b604080516001600160a01b038481168252602082018490528516917f3be5b7a71e84ed12875d241991c70855ac5817d847039e17a9d895c1ceb0f18a910160405180910390a2505050565b610e10611ca4565b8051610e23906012906020840190612751565b5050565b6000818152600260205260408120546001600160a01b03168061092b5760405162461bcd60e51b8152602060048201526018602482015277115490cdcc8c4e881a5b9d985b1a59081d1bdad95b88125160421b6044820152606401610aed565b601280546109f790612b96565b60006001600160a01b038216610efe5760405162461bcd60e51b815260206004820152602960248201527f4552433732313a2061646472657373207a65726f206973206e6f7420612076616044820152683634b21037bbb732b960b91b6064820152608401610aed565b506001600160a01b031660009081526003602052604090205490565b610f22611ca4565b610f2c6000611d50565b565b610f36611ca4565b600f55565b6000600c8281548110610f5057610f50612cdd565b6000918252602090912001546001600160a01b031692915050565b8181610fe282828080602002602001604051908101604052809392919081815260200183836020028082843760009201919091525050600f546040516bffffffffffffffffffffffff193360601b166020820152909250603401905060405160208183030381529060405280519060200120611da2565b15156001146110035760405162461bcd60e51b8152600401610aed90612cf3565b3332146110225760405162461bcd60e51b8152600401610aed90612cf3565b336001600160a01b0387161461107a5760405162461bcd60e51b815260206004820152601e60248201527f4d6f6465726e20417274205468656f72793a204e6f7420616c6c6f77656400006044820152606401610aed565b60155462010000900460ff166110dc5760405162461bcd60e51b815260206004820152602160248201527f4d6f6465726e20417274205468656f72793a2050726573616c65206973204f466044820152602360f91b6064820152608401610aed565b60155460ff16156110ff5760405162461bcd60e51b8152600401610aed90612d1f565b6016548511156111215760405162461bcd60e51b8152600401610aed90612d64565b6016543360009081526017602052604090205461113f908790612c78565b111561115d5760405162461bcd60e51b8152600401610aed90612d64565b600061116860195490565b6011549091506111788783612c78565b11156111d55760405162461bcd60e51b815260206004820152602660248201527f4d6f6465726e20417274205468656f72793a206d617820737570706c7920657860448201526518d95959195960d21b6064820152608401610aed565b34866018546111e49190612db4565b11156112025760405162461bcd60e51b8152600401610aed90612dd3565b3360009081526017602052604081208054889290611221908490612c78565b90915550600090505b8681101561124c5761123a611db8565b8061124481612e1c565b91505061122a565b5050505050505050565b60606001805461094090612b96565b610e23338383611df0565b60008061127c60095490565b6112869047612c78565b90506112b183826112ac866001600160a01b03166000908152600b602052604090205490565b611ebf565b9392505050565b6112c0611ca4565b6015805461ff001916610100179055565b3332146112f05760405162461bcd60e51b8152600401610aed90612cf3565b6015546301000000900460ff166113555760405162461bcd60e51b8152602060048201526024808201527f4d6f6465726e20417274205468656f72793a205075626c696353616c652069736044820152631027a32360e11b6064820152608401610aed565b60155460ff16156113785760405162461bcd60e51b8152600401610aed90612d1f565b600081116113c85760405162461bcd60e51b815260206004820152601e60248201527f4d6f6465726e20417274205468656f72793a207a65726f20616d6f756e7400006044820152606401610aed565b60006113d360195490565b6011549091506113e38383612c78565b11156114405760405162461bcd60e51b815260206004820152602660248201527f4d6f6465726e20417274205468656f72793a204d617820737570706c7920657860448201526518d95959195960d21b6064820152608401610aed565b348260185461144f9190612db4565b111561146d5760405162461bcd60e51b8152600401610aed90612dd3565b60005b82811015610b8e57611480611db8565b8061148a81612e1c565b915050611470565b61149c3383611ad5565b6114b85760405162461bcd60e51b8152600401610aed90612c90565b6114c484848484611efd565b50505050565b6001600160a01b0382166000908152600d602052604081205481906040516370a0823160e01b81523060048201526001600160a01b038616906370a082319060240160206040518083038186803b15801561152457600080fd5b505afa158015611538573d6000803e3d6000fd5b505050506040513d601f19601f8201168201806040525081019061155c9190612e37565b6115669190612c78565b6001600160a01b038086166000908152600e602090815260408083209388168352929052205490915061159c9084908390611ebf565b949350505050565b6115ac611ca4565b6015805460ff19811660ff90911615179055565b601480546109f790612b96565b6000818152600260205260409020546060906001600160a01b031661164c5760405162461bcd60e51b815260206004820152602f60248201527f4552433732314d657461646174613a2055524920717565727920666f72206e6f60448201526e3732bc34b9ba32b73a103a37b5b2b760891b6064820152608401610aed565b601554610100900460ff166116ed576013805461166890612b96565b80601f016020809104026020016040519081016040528092919081815260200182805461169490612b96565b80156116e15780601f106116b6576101008083540402835291602001916116e1565b820191906000526020600020905b8154815290600101906020018083116116c457829003601f168201915b50505050509050919050565b60006116f7611f30565b9050600081511161171757604051806020016040528060008152506112b1565b8061172184611f3f565b601460405160200161173593929190612e50565b6040516020818303038152906040529392505050565b611753611ca4565b8051610e23906014906020840190612751565b61176e611ca4565b6015805463ff00000019811663010000009182900460ff1615909102179055565b60105460405163c455279160e01b81526001600160a01b03848116600483015260009281169190841690829063c45527919060240160206040518083038186803b1580156117dc57600080fd5b505afa1580156117f0573d6000803e3d6000fd5b505050506040513d601f19601f820116820180604052508101906118149190612f14565b6001600160a01b0316141561182d57600191505061092b565b6001600160a01b0380851660009081526005602090815260408083209387168352929052205460ff1661159c565b611863611ca4565b8051610e23906013906020840190612751565b61187e611ca4565b6001600160a01b0381166118e35760405162461bcd60e51b815260206004820152602660248201527f4f776e61626c653a206e6577206f776e657220697320746865207a65726f206160448201526564647265737360d01b6064820152608401610aed565b6118ec81611d50565b50565b6000818152600260205260409020546001600160a01b03166118ec5760405162461bcd60e51b8152602060048201526018602482015277115490cdcc8c4e881a5b9d985b1a59081d1bdad95b88125160421b6044820152606401610aed565b600081815260046020526040902080546001600160a01b0319166001600160a01b038416908117909155819061198382610e27565b6001600160a01b03167f8c5be1e5ebec7d5bd14f71427d1e84f3dd0314c0f7b2291e5b200ac8c7c3b92560405160405180910390a45050565b80471015611a0c5760405162461bcd60e51b815260206004820152601d60248201527f416464726573733a20696e73756666696369656e742062616c616e63650000006044820152606401610aed565b6000826001600160a01b03168260405160006040518083038185875af1925050503d8060008114611a59576040519150601f19603f3d011682016040523d82523d6000602084013e611a5e565b606091505b5050905080610b8e5760405162461bcd60e51b815260206004820152603a60248201527f416464726573733a20756e61626c6520746f2073656e642076616c75652c207260448201527f6563697069656e74206d617920686176652072657665727465640000000000006064820152608401610aed565b600080611ae183610e27565b9050806001600160a01b0316846001600160a01b03161480611b085750611b08818561178f565b8061159c5750836001600160a01b0316611b21846109c3565b6001600160a01b031614949350505050565b826001600160a01b0316611b4682610e27565b6001600160a01b031614611b6c5760405162461bcd60e51b8152600401610aed90612f31565b6001600160a01b038216611bce5760405162461bcd60e51b8152602060048201526024808201527f4552433732313a207472616e7366657220746f20746865207a65726f206164646044820152637265737360e01b6064820152608401610aed565b611bdb8383836001611fdc565b826001600160a01b0316611bee82610e27565b6001600160a01b031614611c145760405162461bcd60e51b8152600401610aed90612f31565b600081815260046020908152604080832080546001600160a01b03199081169091556001600160a01b0387811680865260038552838620805460001901905590871680865283862080546001019055868652600290945282852080549092168417909155905184937fddf252ad1be2c89b69c2b068fc378daa952ba7f163c4a11628f55a4df523b3ef91a4505050565b6006546001600160a01b03163314610f2c5760405162461bcd60e51b815260206004820181905260248201527f4f776e61626c653a2063616c6c6572206973206e6f7420746865206f776e65726044820152606401610aed565b604080516001600160a01b038416602482015260448082018490528251808303909101815260649091019091526020810180516001600160e01b031663a9059cbb60e01b179052610b8e908490612064565b600680546001600160a01b038381166001600160a01b0319831681179093556040519116919082907f8be0079c531659141344cd1fd0a4f28419497f9722a3daafe3b4186f6b6457e090600090a35050565b600082611daf8584612136565b14949350505050565b611dc061217b565b611dce601980546001019055565b6000611dd960195490565b9050611de533826121d5565b50610f2c6001600755565b816001600160a01b0316836001600160a01b03161415611e525760405162461bcd60e51b815260206004820152601960248201527f4552433732313a20617070726f766520746f2063616c6c6572000000000000006044820152606401610aed565b6001600160a01b03838116600081815260056020908152604080832094871680845294825291829020805460ff191686151590811790915591519182527f17307eab39ab6107e8899845ad3d59bd9653f200f220920489ca2b5937696c31910160405180910390a3505050565b6008546001600160a01b0384166000908152600a602052604081205490918391611ee99086612db4565b611ef39190612f76565b61159c9190612f98565b611f08848484611b33565b611f14848484846121ef565b6114c45760405162461bcd60e51b8152600401610aed90612faf565b60606012805461094090612b96565b60606000611f4c836122fc565b600101905060008167ffffffffffffffff811115611f6c57611f6c612979565b6040519080825280601f01601f191660200182016040528015611f96576020820181803683370190505b5090508181016020015b600019016f181899199a1a9b1b9c1cb0b131b232b360811b600a86061a8153600a8504945084611fcf57611fd4565b611fa0565b509392505050565b60018111156114c4576001600160a01b03841615612022576001600160a01b0384166000908152600360205260408120805483929061201c908490612f98565b90915550505b6001600160a01b038316156114c4576001600160a01b03831660009081526003602052604081208054839290612059908490612c78565b909155505050505050565b60006120b9826040518060400160405280602081526020017f5361666545524332303a206c6f772d6c6576656c2063616c6c206661696c6564815250856001600160a01b03166123d49092919063ffffffff16565b805190915015610b8e57808060200190518101906120d79190613001565b610b8e5760405162461bcd60e51b815260206004820152602a60248201527f5361666545524332303a204552433230206f7065726174696f6e20646964206e6044820152691bdd081cdd58d8d9595960b21b6064820152608401610aed565b600081815b8451811015611fd4576121678286838151811061215a5761215a612cdd565b60200260200101516123e3565b91508061217381612e1c565b91505061213b565b600260075414156121ce5760405162461bcd60e51b815260206004820152601f60248201527f5265656e7472616e637947756172643a207265656e7472616e742063616c6c006044820152606401610aed565b6002600755565b610e2382826040518060200160405280600081525061240f565b60006001600160a01b0384163b156122f157604051630a85bd0160e11b81526001600160a01b0385169063150b7a029061223390339089908890889060040161301e565b602060405180830381600087803b15801561224d57600080fd5b505af192505050801561227d575060408051601f3d908101601f1916820190925261227a9181019061305b565b60015b6122d7573d8080156122ab576040519150601f19603f3d011682016040523d82523d6000602084013e6122b0565b606091505b5080516122cf5760405162461bcd60e51b8152600401610aed90612faf565b805181602001fd5b6001600160e01b031916630a85bd0160e11b14905061159c565b506001949350505050565b60008072184f03e93ff9f4daa797ed6e38ed64bf6a1f0160401b831061233b5772184f03e93ff9f4daa797ed6e38ed64bf6a1f0160401b830492506040015b6d04ee2d6d415b85acef81000000008310612367576d04ee2d6d415b85acef8100000000830492506020015b662386f26fc10000831061238557662386f26fc10000830492506010015b6305f5e100831061239d576305f5e100830492506008015b61271083106123b157612710830492506004015b606483106123c3576064830492506002015b600a831061092b5760010192915050565b606061159c8484600085612442565b60008183106123ff5760008281526020849052604090206112b1565b5060009182526020526040902090565b612419838361251d565b61242660008484846121ef565b610b8e5760405162461bcd60e51b8152600401610aed90612faf565b6060824710156124a35760405162461bcd60e51b815260206004820152602660248201527f416464726573733a20696e73756666696369656e742062616c616e636520666f6044820152651c8818d85b1b60d21b6064820152608401610aed565b600080866001600160a01b031685876040516124bf9190613078565b60006040518083038185875af1925050503d80600081146124fc576040519150601f19603f3d011682016040523d82523d6000602084013e612501565b606091505b5091509150612512878383876126b6565b979650505050505050565b6001600160a01b0382166125735760405162461bcd60e51b815260206004820181905260248201527f4552433732313a206d696e7420746f20746865207a65726f20616464726573736044820152606401610aed565b6000818152600260205260409020546001600160a01b0316156125d85760405162461bcd60e51b815260206004820152601c60248201527f4552433732313a20746f6b656e20616c7265616479206d696e746564000000006044820152606401610aed565b6125e6600083836001611fdc565b6000818152600260205260409020546001600160a01b03161561264b5760405162461bcd60e51b815260206004820152601c60248201527f4552433732313a20746f6b656e20616c7265616479206d696e746564000000006044820152606401610aed565b6001600160a01b038216600081815260036020908152604080832080546001019055848352600290915280822080546001600160a01b0319168417905551839291907fddf252ad1be2c89b69c2b068fc378daa952ba7f163c4a11628f55a4df523b3ef908290a45050565b6060831561272257825161271b576001600160a01b0385163b61271b5760405162461bcd60e51b815260206004820152601d60248201527f416464726573733a2063616c6c20746f206e6f6e2d636f6e74726163740000006044820152606401610aed565b508161159c565b61159c83838151156127375781518083602001fd5b8060405162461bcd60e51b8152600401610aed9190612875565b82805461275d90612b96565b90600052602060002090601f01602090048101928261277f57600085556127c5565b82601f1061279857805160ff19168380011785556127c5565b828001600101855582156127c5579182015b828111156127c55782518255916020019190600101906127aa565b506127d19291506127d5565b5090565b5b808211156127d157600081556001016127d6565b6001600160e01b0319811681146118ec57600080fd5b60006020828403121561281257600080fd5b81356112b1816127ea565b60005b83811015612838578181015183820152602001612820565b838111156114c45750506000910152565b6000815180845261286181602086016020860161281d565b601f01601f19169290920160200192915050565b6020815260006112b16020830184612849565b60006020828403121561289a57600080fd5b5035919050565b6001600160a01b03811681146118ec57600080fd5b600080604083850312156128c957600080fd5b82356128d4816128a1565b946020939093013593505050565b6000602082840312156128f457600080fd5b81356112b1816128a1565b60008060006060848603121561291457600080fd5b833561291f816128a1565b9250602084013561292f816128a1565b929592945050506040919091013590565b6000806040838503121561295357600080fd5b823561295e816128a1565b9150602083013561296e816128a1565b809150509250929050565b634e487b7160e01b600052604160045260246000fd5b600067ffffffffffffffff808411156129aa576129aa612979565b604051601f8501601f19908116603f011681019082821181831017156129d2576129d2612979565b816040528093508581528686860111156129eb57600080fd5b858560208301376000602087830101525050509392505050565b600060208284031215612a1757600080fd5b813567ffffffffffffffff811115612a2e57600080fd5b8201601f81018413612a3f57600080fd5b61159c8482356020840161298f565b60008060008060608587031215612a6457600080fd5b8435612a6f816128a1565b935060208501359250604085013567ffffffffffffffff80821115612a9357600080fd5b818701915087601f830112612aa757600080fd5b813581811115612ab657600080fd5b8860208260051b8501011115612acb57600080fd5b95989497505060200194505050565b80151581146118ec57600080fd5b60008060408385031215612afb57600080fd5b8235612b06816128a1565b9150602083013561296e81612ada565b60008060008060808587031215612b2c57600080fd5b8435612b37816128a1565b93506020850135612b47816128a1565b925060408501359150606085013567ffffffffffffffff811115612b6a57600080fd5b8501601f81018713612b7b57600080fd5b612b8a8782356020840161298f565b91505092959194509250565b600181811c90821680612baa57607f821691505b60208210811415612bcb57634e487b7160e01b600052602260045260246000fd5b50919050565b60208082526026908201527f5061796d656e7453706c69747465723a206163636f756e7420686173206e6f2060408201526573686172657360d01b606082015260800190565b6020808252602b908201527f5061796d656e7453706c69747465723a206163636f756e74206973206e6f742060408201526a191d59481c185e5b595b9d60aa1b606082015260800190565b634e487b7160e01b600052601160045260246000fd5b60008219821115612c8b57612c8b612c62565b500190565b6020808252602d908201527f4552433732313a2063616c6c6572206973206e6f7420746f6b656e206f776e6560408201526c1c881bdc88185c1c1c9bdd9959609a1b606082015260800190565b634e487b7160e01b600052603260045260246000fd5b6020808252601290820152712737ba1030b63637bbb2b21037b934b3b4b760711b604082015260600190565b60208082526025908201527f4d6f6465726e20417274205468656f72793a20436f6e74726163742069732070604082015264185d5cd95960da1b606082015260800190565b60208082526030908201527f4d6f6465726e20417274205468656f72793a20596f752063616e2774206d696e60408201526f7420736f206d75636820746f6b656e7360801b606082015260800190565b6000816000190483118215151615612dce57612dce612c62565b500290565b60208082526029908201527f4d6f6465726e20417274205468656f72793a204e6f7420656e6f7567682065746040820152681a195c9cc81cd95b9d60ba1b606082015260800190565b6000600019821415612e3057612e30612c62565b5060010190565b600060208284031215612e4957600080fd5b5051919050565b600084516020612e638285838a0161281d565b855191840191612e768184848a0161281d565b8554920191600090600181811c9080831680612e9357607f831692505b858310811415612eb157634e487b7160e01b85526022600452602485fd5b808015612ec55760018114612ed657612f03565b60ff19851688528388019550612f03565b60008b81526020902060005b85811015612efb5781548a820152908401908801612ee2565b505083880195505b50939b9a5050505050505050505050565b600060208284031215612f2657600080fd5b81516112b1816128a1565b60208082526025908201527f4552433732313a207472616e736665722066726f6d20696e636f72726563742060408201526437bbb732b960d91b606082015260800190565b600082612f9357634e487b7160e01b600052601260045260246000fd5b500490565b600082821015612faa57612faa612c62565b500390565b60208082526032908201527f4552433732313a207472616e7366657220746f206e6f6e20455243373231526560408201527131b2b4bb32b91034b6b83632b6b2b73a32b960711b606082015260800190565b60006020828403121561301357600080fd5b81516112b181612ada565b6001600160a01b038581168252841660208201526040810183905260806060820181905260009061305190830184612849565b9695505050505050565b60006020828403121561306d57600080fd5b81516112b1816127ea565b6000825161308a81846020870161281d565b919091019291505056fea2646970667358221220f3446c879a020c6ce9648299d38d2779d6eae0dcbc42941c95d69e5b0eb86acd64736f6c63430008090033697066733a2f2f516d51543477384d7362684d6a566d6f6d7338677a56486346645858555835684d68567953654269447052344e6f2f48696464656e4d41542e676966",
  "linkReferences": {},
  "deployedLinkReferences": {}
}